:400000000080002011000000490C0000490C000010B500F021FEC04670B512222F4B1A6001F066F82E4801F0D3FF012001F080F8302000F077FF2B4A2B4B1A602B4C8025F5
:40004000ED0525602A4A116802230B431360294A294B1A600022294B1A60294A136808218B431360FA20C00001F00EF8254800F04FFFBC229201244B1A60244B2449196042
:4000800024490A60244A1A60B8214901234A1160234A1A60E8214901224A1160224A1A6082221206214B1A608022D202204B1A604322204B1A60013A1F4B1A60023A1F4B77
:4000C0001A6001321E4B1A601E49082000F0D0FE082000F0B7FE256070BDC04630001040001BB7000600008004010B400C020B4078002E402D3E00007C002E4064F02E4020
:400100006CF02E40DC0500000C0301400000014043FF00800803014042FF00800003014040FF00800403014041FF008008010B4000010B40380101403001014018010140C3
:40014000080101404912000010B572B600222C4B1A6001322B4B1A7000240FE02A486200131959000B00411889881A5AC31858880004104300F034FD0134E4B2012CEDD961
:4001800021490C312148503000F010FD204A214B1A6099231B04204A1360204A1360204A13600E221F4B1A60043A1F4B1A601F490B783232934314221343DBB20B701C4A9B
:4001C000117816230B43DBB213700322194B1A60194A1A4B1A608022194B1A60C022D203184B1A60AF22184B1A60184A184B1A602022184B1A60FFF70FFF00F007FD10BDB5
:400200006CF02E401C700F40645C0100645D0100EE0000EE0000024000500F4020500F4030500F402000104000800F4001700F4000700F40000004402400D8000800044001
:40024000000204400802044000030440B60DC000080304401803044010B5064C2378002B07D1054B002B02D0044800E000BF0123237010BDE812002000000000405C01004A
:40028000084B10B5002B03D00749084800E000BF07480368002B00D110BD064B002BFBD09847F9E700000000EC120020405C0100400E00200000000010B504000021272006
:4002C00001F044FD200001F0CFFD0022014B1A7010BDC0460413002010B501F099FD10BDFA231B015843002301E0C04601338342FBD370478000002301E0C04601338342F5
:40030000FBD370478008064B5B68984203D90133034A536002E00022014B5A607047C046041300204000064B9B68984203D90133034A936002E00022014B9A607047C046EF
:4003400004130020C046C046C046C046C046704770B505000E0008222D4B1A70002903D10820FFF7A9FF05E00922294B1A700920FFF7A2FF264C207804231843C0B22070EE
:40038000FFF79AFF0F2328009843237818432070FFF792FF2078062398432070FFF78CFFFFF79AFFFFF7CEFF002E03D10220FFF7B9FF02E03220FFF7A5FF164B1B7B012BAA
:4003C00025D1134C23780F2018400923184004231843C0B22070FFF76FFF2D0120780543E8B22070FFF768FF2078062398432070FFF762FFFFF770FFFFF7A4FF002E03D102
:400400000220FFF78FFF02E03220FFF77BFF70BDDC2400200413002010B54038C0B20021FFF796FF10BDC04670B505000E0008222D4B1A702D4B1878FFF73EFF002E04D11E
:40044000294B1878FFF738FF07E0274A107801231843C0B21070FFF72FFF234C207804230343DBB20F222800904318432070FFF723FF2078062398432070FFF71DFFFFF772
:400480002BFF002E03D10220FFF72AFF02E03220FFF730FF164B1B7B012B23D1124C23780F2018400923184004231843C0B22070FFF702FF2D0120780543E8B22070FFF7B2
:4004C000FBFE2078062398432070FFF7F5FEFFF703FF002E03D10220FFF702FF02E03220FFF708FF70BDC046DC240020DD2400200413002010B500210120FFF795FF10BDA1
:4005000010B500212820FFF78FFF0122014B1A7310BDC0460413002010B500210620FFF783FF10BD10B58038C0B20021FFF77CFF10BDC04610B500210E20FFF775FF10BD13
:4005400010B54000134B18700820FFF7B5FE0822114B1A70FFF7C0FE142000F0C1FC00213020FFF761FF052000F0BAFC00213020FFF75AFF012000F0B3FC00213020FFF7A1
:4005800053FFFFF7BDFFFFF7C7FFFFF7D3FFFFF7B1FF10BDDD240020DC24002010B50121FFF742FF10BDC04610B5282803D04E2805D0012812D1002001F028F80EE0084B5D
:4005C0001960002304E04A68D05C064AD05401330A899342F7DB0122024B5A6110BDC046E42400201413002010B5002000F03EFF044B1860044B58437F2102F04BF8034B68
:40060000186010BDE02400200F270000440E002070B5434A138B01339BB21383414A526893427CD13F4B9B68012B31D13D4B1A68DB689A422CDC3A4BDB69012B14D1384C91
:40064000236A5A1C2262374DEB18187C00F04EFE226AAD182B7CDB4324216354072A5BDD00222F4B1A6257E02D4C236A5A1E22622C4DEB18187C00F039FE236AED18297C62
:400680002422A154002B47DA1D3A254B1A6243E0234B9B6A012B3FD1224B1A68DB689A423ADC1F4BDA6A204B1B689A4234D01C4BDB69012B18D11A4C236A5A1C2262194AEE
:4006C000D318187C00F012FEE36A013BE362602B02D96022124BDA62114B1B6A072B1BDD00220F4B1A6217E00D4C236A5A1E22620C4AD318187C00F0F9FDE36A0133E362CF
:40070000602B02D90022064BDA62054B1B6A002B02DA0722024B1A620022014B1A8370BD14130020440E0020EC240020002303E0C218002111700133132BF9DD7047C0462E
:400740000378442B1BD14278492A18D18278522A15D1C2783A2A12D10279432A0FD14379572B02D18279002A7AD0432B7AD18379572B79D1C379002B78D000209BE0522B20
:400780000ED14278502A0BD18278532A08D1C2783A2A05D182792E2A02D1027A002A67D04D2B21D142784F2A1ED18278542A1BD1C2784F2A18D10279522A15D142793A2AFB
:4007C00012D182794F2A0FD1C3794E2B02D1027A002A4FD0462B4FD1037A462B4ED1437A002B4DD0002066E0532B14D14278542A11D18278452A0ED1C278502A0BD102799C
:40080000432A08D14279572A05D182793A2A02D1C27A002A36D0542B36D14378452B35D183784D2B34D1C378502B33D103794C2B32D14379492B31D183794D2B30D1C37900
:40084000492B2FD1037A542B2ED1437A3A2B2DD1437B2E2B2CD1C37B002B2BD000202AE0012028E0002026E0002024E0022022E0072020E003201EE000201CE000201AE032
:40088000042018E0052016E0002014E0002012E0002010E000200EE000200CE000200AE0002008E0002006E0002004E0002002E0002000E00620704770B50C0005792A00DD
:4008C000303A6423534319004379303B9A00D3185A008A18C379303BD118257043796370C379A370014801F04BFE70BD7017000010B5FFF7FFFD0020FFF714FE2D4BDB69DB
:40090000012B09D14320FFF749FE4320FFF746FE5720FFF743FE05E04320FFF73FFE5720FFF73CFE0320FFF7FDFD2D20FFF736FE0520FFF7F7FD5420FFF730FE4520FFF718
:400940002DFE4D20FFF72AFE5020FFF727FE3A20FFF724FE184CE07EFFF720FEA07EFFF71DFE607EFFF71AFE2E20FFF717FE207EFFF714FE4320FFF711FE0120FFF74CFD0C
:400980005220FFF70BFE5020FFF708FE4D20FFF705FE3A20FFF702FE207FFFF7FFFD607FFFF7FCFD2E20FFF7F9FDA07FFFF7F6FD10BDC04614130020440E002010B5827AB6
:4009C000303AFA239B0053431C00C27A303A64210B005343E218037B303B9900CB1859005218837B303BD01810BDC04670B505000C00FA21890001F0C3FD3030E070FA21BB
:400A00008900280001F042FE0D006421280001F0B7FD3030A0706421280001F037FE0D000A21280001F0ACFD303060700A21280001F02CFE3031217070BDC04610B5134A53
:400A4000138E01339BB21386518E01315186FA229200934209D100F0E5F943425841C0B200F0D4F90022094B1A86084B5A8E084B9A420AD1FFF73CFF064B1900183118689C
:400A8000FFF7B4FF0022014B5A8610BD14130020B80B0000440E002010B5C379303B64225343027A303A91008A1851005B18427A303A9B185A00D3185801024901F060FD81
:400AC00010BDC046E703000070B500F05DF901F06DFA2D4800F08CF92C4800F00FFD2C4801F008FA62B600F0A7FC00F0DBFC00F0B3FC01F01BF80120FFF722FD254800F00D
:400B000029FD01F039FF244B5B69012BF9D1224800234361FFF714FE204B186007282FD880001F4B1B589F4601221E4B9A600022194B9A6224E000221A4B9A600132164B88
:400B40009A621DE00022144BDA6119E00122124BDA6115E0134D29001C310F4C2000FFF7ABFE6860002323830AE00B48FFF794FF0D4B186004E00848FFF720FF094BD8602B
:400B80000548FFF7D3FDBCE711060000E90500003D0A0000A905000014130020E8240020445C0100440E0020EC240020F0B50025002711E0BB00C658F3B2FF22964308E08D
:400BC0006A008A181478A419527822700135013BDBB2002BF4D10137062FEBD9F0BDC04610B50A00002101F085FE10BD064B1B68002803D080221206134301E05B005B08C2
:400C0000014A13607047C04680033A4010B50323084A1360084A136080221206074B1A602022074B1A600022064B1A600120FFF7DDFF10BD300030403000314000003A40CB
:400C400000033A40000E3F4010B501F00FFE03680C2B00D1FEE7FEE770B50F4E0F4D13E029686B68AC68002202E001C901C30432A242FAD1E868002202E0002102C304323A
:400C80008242FAD11035013E002EE9D101F0F4FDFFF71AFFFEE7C04601000000BC5F010010B50E4A136801218B43136000230AE0032B03D89A000A49505800E009489900D0
:400CC000094A885001332F2BF2D9FFF73DFA034A116801230B43136010BDC0460000104000000000490C000000000020034A117880235B420B43DBB21370704773000F4013
:400D0000014B18707047C04683000F40014B1878C0B2704763000F40014B18807047C04644100F40014B188880B2704784100F40014B18807047C04604100F4010B501E0F3
:400D4000FFF7F0FFFFF7E2FF0307F9D410BDC04610B50B4C2000FFF7DFFF2000FFF7E8FF01F03FF9074A117810230B43DBB2137001F03BF9FFF7E2FF0020FFF7C1FF10BDCD
:400D8000E703000093000F4010B5064B1B78002B04D1FFF7DDFF0122024B1A70FFF7A6FF10BDC04649130020014B58647047C0460000002010B5040001F013F9044A116896
:400DC000044B0B40A4031C43146001F00EF910BD00E400E0FF3FFFFF0222014B1A60704700E100E00222014B1A60704780E100E010B50400FFF7F6FF2000FFF7D5FF032015
:400E0000FFF7D8FFFFF7E8FF10BDC04604490A687F231A40C301D8B2104308607047C04600030440024B1868C00901231840704704030440024B1B68012018407047C04653
:400E40000C002E401F2318401E3B8340014A13607047C04600E100E01F2318401E3B8340014A13607047C04680E100E001BE704770B504000D001F2802D90020FFF7F6FFBB
:400E80001034A40080239B059C4664442068256070BDC04670B504000E00032902D90020FFF7E4FF1F2C02D90020FFF7DFFF03252540ED00063501F094F8A408A400074B18
:400EC0009C46644421680323AB4099430B003100A9401943216001F088F870BD00E400E010B5040006E0084B586801F071F8074B9C46644480231B029C42F4D8024B9868DF
:400F0000604301F065F810BD640E00200080FFFF10B5034B1B7B584301F05AF810BDC046640E0020F0B557464E46C0B483B0040001F057F80190E71E2D2F74D83F4B1B78DB
:400F4000DBB29C4208D83E4B1B78DBB29A463D4B1B78DBB2994631E03B4B1B78DBB29C4208D83A4B1B78DBB29A46394B1B78DBB2994623E0374B1B78DBB29C4208D8364BB5
:400F80001B78DBB29A46354B1B78DBB2994615E0334B1B78DBB29C4208D8324B1B78DBB29A46314B1B78DBB2994607E02F4B1B78DBB29A462E4B1B78DBB299462D4BDE5DDD
:400FC0002F2E09D92A2C07D919222B4B1A60052000F0FEFF192503E0274B1D683F231D40B54206D9234BDA5D234B1A60052000F0EFFF1F4B9C4664442378DBB21F4A13600A
:401000001F4B52461A601F4B4A461A600520FFF77FFFB5420AD2174BDA5D174B1A60052000F0D6FF02E00020FFF720FF019800F0DCFF03B00CBC91469A46F0BD40F3FF0F5A
:4010400041F3FF0F42F3FF0F43F3FF0F44F3FF0F45F3FF0F46F3FF0F47F3FF0F48F3FF0F49F3FF0F4AF3FF0F4BF3FF0F4CF3FF0F4DF3FF0FD05D01002CFF0B4028FF0B40B2
:401080001CFF0B4020FF0B4010B504000F4A116801230B4313600E4A0E4B1A600E4A1368802109020B431360002809D100200CE00120FFF72DFFFFF7BDFE002804D1013C39
:4010C000002CF5D1102000E0002010BD60F02E400220000078002E4010002E40034B1868C0231B02184000D00120704700010B4010B50D4B1A6801218A431A601A680220F7
:4011000082431A60094A10683024A043203C204310601068093CA043014311601A68802109060A431A6010BD00F02E4000FF2E4070B51D4B1B6801241C40002802D00128A5
:4011400016D02BE0184B19680122914319601968022081431960154B19682E3081432038014319601968093881430A431A6018E00D4B1A6802218A431A600C4A10680725AF
:40118000A84301431160116830208143103801431160196801220A431A6002E00020FFF765FE200070BDC04600F02E4000FF2E4010B500F016FF044A1368C02109020B4354
:4011C000136000F012FF10BD00010B4010B500F008FF08490A68084B1A408024E40122430A600A6813408022120213430B6000F0FCFE10BD00010B40FF3FFFFF70B5050039
:4012000000F0EFFE0400FFF769FF002803D0FFF7DDFF012100E0002108482840084A1568084B2B40184310601368012901D1FFF7BFFF200000F0D9FE70BDC046040404001E
:4012400010020B40FBFBFBFF10B5244B1B685B0715D5234B5B685B070ED5224B596A042001401F4C62688A4362605A6A82435A629B69002B00D098470420FFF7BFFF174BF2
:401280001B685B0518D5164B5B685B0510D5154B596A8022D2001140114842688A434260596A114A0A405A62DB69002B00D098478020C000FFF7A2FF084B1B685B030CD54D
:4012C000074B5B685B0304D5064B1B6A002B00D098478020C002FFF791FF10BD10020B40780E00204C130020FFFBFFFF044A1368DBB20F218B430840184310607047C0469F
:401300000003044010B503210F20FFF7C3FD26490F20FFF7ADFD0122244B1A60244B1B68002B01DA234900E02349244A13680B431360234A234B1A60234A244B1A60002326
:40134000234A1360234A24490A6024490A6024490A688020400202430A60224A1360224A13600122214B1A60214A1168214B0B40802189050B43136002221F4B1A60002385
:401380000EE09A001D495118802080000860580000241B494452C22040001A4950500133002BEED010BDC0469914000020003A4080033A40700210537002005300003A406B
:4013C0000C00008004003A400000FF0718003A401C003A400200020010003A4014003A4000033A4028023A4038023A4018023A4030003A40FEFFFFDF040F3A4080003A4024
:40140000F4240020F024002010B5094B1B68002B0CDB084B1B68002BFBDB054A1368802109060B4313600A20FFF772FD10BDC04600003A4008023A4010B5064B1B78002B4C
:4014400004D1FFF75FFF0122024B1A70FFF7DCFF10BDC04674130020034A1368802149020B4313607047C04604003A4010B5041E02D00020FFF7FAFC002C07D1A400054B91
:401480009C46644420680004000C00E0002000B210BDC04680013A40014B1A681A60704710023A4080221202014B1A607047C04600E100E0014B98647047C04600000020E0
:4014C00010B5040000F08DFD044A1168044B0B40A4051C43146000F088FD10BD00E400E0FFFF3FFF0422014B1A60704700E100E00422014B1A60704780E100E010B5040079
:40150000FFF7F6FF2000FFF7D5FF0320FFF7D8FFFFF7E8FF10BDC04610B500F0EFF810BD10B50024064B1C70064B1C70064B1C70FFF7F2FF054B1C70054B1C7010BDC046DB
:401540000F250020082500200E250020F82400200025002010B590B00400142222490BA801F0BFF92023214AD35C002B05D1FFF7D7FF012120231D4AD154002C30D01C4BC2
:401580001C6008AC05AA099206AB089302212181193119805980173919710823137001F0E1F916216944200001F0C2FA002818D1104B0293104B0193052300930BABD82285
:4015C00012010E490E4801F009FA002809D101220C4B1A70073212210B480FF02DFF00E0012010B010BDC046005E010078130020FC24002079020000006D0100C0000020A0
:40160000FD17000006250020145E010010B502282FD81C4B1B78042B2DD11B4B1B785B072CD4002809D1194B1E221A860232596A0A805B6A10325A800CE001280AD1134B6A
:4016400096221A86C822D200596A0A805B6A8022D2015A800E4B18700C4820300DF0FAFA00280DD1084A117804230B43DBB2137006E0012004E00420FF3001E00420FF30A7
:4016800010BDC046062500200F250020800E00200E2500207047C04603784078000218437047C04670B5050083890F2B1FD1043031332A0000210FF0D7FE041E11D16868C2
:4016C000FFF7EAFF830706D50A4B1B68290082204000984705E0074B1B6829000620FF309847054A137801218B43137000E00024200070BDFC2400200F2500207047C046DE
:4017000000B585B00F236B4400221A70123269460A81009301238B8000230022002168460FF0A2FE05B000BD10B582B00400154B1B68002B23D08389122B20D10389012BDF
:401740001DD143681B78022B19D804304023220000210FF089FE002811D123886A4613800023937004340194064B1B686946BE20FF309847044A137801218B43137002B067
:4017800010BDC0469C1300200F25002010B5034B00225A701A70FFF7B3FF10BD0C25002010B582B00400FFF77DFF0A4B1B78DB070ED4002809D001A912238B70A3890B8039
:4017C000C87020680EF0B0FB02E020680EF024FC02B010BD0F2500208379002B07D000200BE0C25C002A07D10133DBB200E00023052BF6D9002000E001207047F0B583B089
:4018000004000D00AA4A117801230B43DBB21370282800D1D1E016D8212800D1A0E009D8052800D184E0062800D185E0012800D02CE11FE0262800D1C3E000D9B9E0242812
:4018400000D1AEE022E1432800D106E108D8412800D1EAE000D9FDE0312800D1A5E015E14E2800D105E1FA2800D10AE14C2800D00CE1FAE001AE07273770002373703000D4
:4018800003F0A2F8377001237370300003F09CF801F064F8874B1E683000FFF79DFF00280CD0300001F06CF8824E00213068FFF7F1FE30680121FFF7EDFE2AE07E4B1F78D3
:4018C0007E4B18788001FC263601020032403F21394011437A4B1B781B03F822520213401943784B1B785B04FE22120413400B43754E33701A0A72701B0CB370300001F01E
:401900003FF800213000FFF7C5FE01213000FFF7C1FE00200DF030F802226C4901A800F0E0FF01A80DF046F80422694B1A70ADE02A78684B1A70A9E02B78002B00D0A5E069
:401940006B78002B06D1644B0022DA809A80634A1A606B60564A137801218B43137095E0534B1B789B0600D590E05D4B1B78102B02D105225A4BDA705A4B187858490DF0EF
:4019800027F901AB1880002804D0574B1B6801A936209847464A117801230B43DBB2137074E06A78514B1A7070E00222484B1A706CE00222464B1A7068E00422444B1A7029
:4019C00064E0434B1B78022B60D0394A1278D2075CD5374A1278520708D503223C4B1A70334A137804218B4313704FE0304A1278120708D50422364B1A702D4A1378082194
:401A00008B43137042E0032B40D10422304B1A70374B1B78002B39D10120FFF7F7FD002834D103222A4B1A7030E02E4E02222900300000F056FF0022264B1A7031783D31A1
:401A4000FF3149002B4B5918013102322A4800F048FF1BE0FFF79AFE18E06988162900D9172128880EF06AFA10E02800FFF798FE0CE00F4B1B78DB0708D52800FFF754FE77
:401A800004E01E4A117801230B431370084B1A7811231A4209D0064A137801218B431370114B1B6829002000984703B0F0BDC0460F250020B40E00207CF2FF0F7DF2FF0F24
:401AC0007BF2FF0F78F2FF0FB80E0020845F01000625002008250020A0130020400E0020240F00200C250020FC240020002500200E250020006D010004250020F8240020E1
:401B000010B50A20FFF79EF910BDC04610B500F01DF810BD10B5044A1368802109060B431360FFF7EDFF10BD0000254010B5064B1B78002B04D1FFF7E9FF0122024B1A702B
:401B4000FFF7E8FF10BDC046A813002010B50024184B1C60184A194B1A60194B194A1360194A1460194A1460194A1360194B1C600A20FFF771F903210A20FFF78BF9164983
:401B80000A20FFF775F9154B1C60154B1C60154B1C60154B1C60154B1C60154B1C601022144B1A70144B1C80144B1C60144B1C6010BDC046000025407708008060002540A7
:401BC000070100800003254004032540100325400002254004022540F11F0000C80E2540880E2540480F2540080F2540C80F2540880F25401025002028250020242500205E
:401C00002C25002010B50E4A13685B005B08136000230C490B600C490B600C4804680C49214001600B490B600B490B6010210B4B19701368802109060B43136010BDC046A3
:401C400000002540680025406C00254060002540FF5CFFFF880F2540C80F25401025002010B504000368002B09D00120FFF750F92368013B2360002B03D0002003E00020B3
:401C800001E08020000610BD10B5002839DBC023034208D00022284B1A601032274B1A70002310243DE0C3070FD5244B1B781B072BD5234B1B685B0001D5002300E00123F3
:401CC00010211E4A117001242BE0C30520D4830722D4C30605D51022184B1A70002300241FE0164B1B781B0719D5144B1B78DB0701D5252200E02422104B1A70002300240F
:401D00000FE00123802424060BE00123012408E001238024640004E00023022401E000230024012B02D1FFF76DFF02E0054A064B1A60200010BDC0466800254010250020B3
:401D40006000254017030000000F254070B582B004000D001600244B1B78102B40D10A20FFF77AF8214B1B68DB0734D4FA239B005E43019600221E4B1A601E4A1E4B1A6099
:401D80001E4A1F4B1A606400FF231C40002D03D12422154B1A7004E02522134B1A7001231C43184B1C600222174B1A60124B1C680823FF3320001840144B1B68C024234070
:401DC0001843040001A8FFF74BFF2043EED0FFF75BFF040000E008240A20FFF733F800E00424200002B070BD1025002064002540080F254017030000000F2540ED0F0000A4
:401E0000C00F25404002254068002540400F254010B582B0104B1B789B061AD5FA239B00584301900D4B1B689B0601D5182200E010220B4B1A600B4B18681223FF331840EA
:401E4000040001A8FFF70CFF2043F4D0FFF71CFF00E0042002B010BD102500206400254068002540000F254010B582B00D4B1B789B0613D5FA239B00594301910A4B18607C
:401E80000A4B18680823FF331840040001A8FFF7E7FE2043F4D0FFF7F7FE00E0042002B010BDC0461025002040022540000F2540014BD8647047C0460000002010B50400D7
:401EC00000F08FF8044A13689B009B08A4071C43146000F08AF810BD00E400E00822014B1A60704700E100E00822014B1A60704780E100E010B50400FFF7F6FF2000FFF7C9
:401F0000D7FF0320FFF7DAFFFFF7E8FF10BDC046034A117880235B420B43DBB21370704771000F40014B18707047C04681000F40014B1878C0B2704761000F40014B188044
:401F40007047C04640100F40014B188880B2704780100F40014B18807047C04600100F4010B501E0FFF7F0FFFFF7E2FF0307F9D410BDC04610B50B4C2000FFF7DFFF200015
:401F8000FFF7E8FF00F02DF8074A117810230B43DBB2137000F029F8FFF7E2FF0020FFF7C1FF10BDE703000091000F4010B5064B1B78002B04D1FFF7DDFF0122024B1A70FA
:401FC000FFF7A6FF10BDC046B0130020000000000230800803D00138FDD1C046C046C0467047EFF3108072B6704780F31088704710B5AF4B1B68002B00D09847AD4B1B6889
:40200000DB0702D50022AC4B1A60AC4B1B789B0628D5AB4B1B68DB0507D5AA4A1188C0239B000B431380012300E00023A44A1268D20706D5A34A118890239B000B43138013
:402040000123002B0FD09D4A1278D20701D5012200E002229B49088802430A800021974A117000E00023954A1278920600D417E1934A1268D20611D51022934B1A608F4BDC
:402080001B78DB0701D5012300E002238D4A11880B4313801022894B1A7007E1874A1278120720D5864A126892070AD50222864B1A60844A118888239B000B431380012397
:4020C00011E07E4A1278D20703D525217B4A117009E02421794A11707C4A1268002A02D014397B4A1160754A1278520700D4AEE0724A1278D20749D5764A1268120727D59F
:40210000754A1268754909681F240C40744909686418141B082C09D8002C16D1714A1168714B0B401360012308340EE008240CE06B4A11686D48006841186D480068C0B260
:402140000870116801311160013C002CF0D119E0604A1268520715D5614A116863480068411863480068C0B208701168013111601168594A1268914203D204215D4A11601D
:4021800000E001235C495D4A116060E04C4A1268920726D502224C4B1A6059490B681D321A40096880231B020B4000D001239B18544A1168CB1A13601268534B1A60414AD8
:4021C000118884239B000B431380504B1A68802149020A431A6019684D4A0A401A60012335E04C4A1268D2061ED427E0454A1168364A126891421DD2344A1268013A4149DC
:4022000009688A4204D1402243490A6030490A603C4A11684148006841180978C9B240480160116801311160354A12681F210A40082ADBD11021384A116008E0354A1268A1
:40224000520604D52F4B1A682F4B1A600123002B2CD0244A1168244B0B4013600023314A13601B4A1360304B1B789B070ED5134B1B78DB0701D5092300E00A23114A11888C
:402280000B43138060220D4B1A700FE0274B1B689B0601D5182200E01022164B1A6005E0064B1B78DB0601D4FFF7ACFC10BDC046AC1300208C0E2540880E25401025002039
:4022C0000C0F254028250020000F254018250020880F2540CC0F254014250020080325402425002060002540FFFEFFFF302500204003254068002540ED0F0000C00F2540D8
:40230000080225401C2500202C25002004022540FFFFFEFF8C0F2540800F25402025002040022540C80F2540342500206400254010B5FFF756FE044A136804218B4313603A
:4023400030BFFFF752FE10BD10ED00E00160704701607047324B1A781202324B1B781A43314B1B781B02314909780B4330498B4201D1072A06D0D42109018B4206D1042A59
:4023800004D102E02B4B042200E02A4B2A490B602A4B1A602A4B1B781B022A4A1278134380229201934202D0002B02D002E0264B00E0254B254A1360254B1B781B02254A42
:4023C00012781343244A934205D0244A934204D0052B05D103E0224B02E0214B00E0204B204A1360204B1B681B09204A1268AA2A15D1012B13D9164B1B780E2B0FD11C4BC6
:402400001B781B021B4A127813431B4A13601B4B1B781B021A4A127813431A4A1360704759F1FF0F58F1FF0F5FF1FF0F5EF1FF0F580B0000580D00006C002E4074002E40F9
:402440005BF1FF0F5AF1FF0F0220000078002E405DF1FF0F5CF1FF0F0F0F000005050000050F000080002E40EC0F00F0E00F00F06DF2FF0F6CF2FF0F84002E406FF2FF0FBC
:402480006EF2FF0F94002E4010B5FEF741FD10BD10B5FEF725FD10BD10B500F04FF810BD10B500F053F810BD10B500F04FF8034800F02EF8032000F031F810BD79250000A4
:4024C00010B5024800F04AF810BDC0467925000000487047020200002B2070472B2070472B2070472B2070472B2070472B2070472B2070472B2070472B2070472B20704713
:402500002B2070477047C0460120704701207047014B18677047C0460000002010B50400FFF75FFD044A1368C0218B43A4011C431460FFF75AFD10BD0CE400E0802252019A
:40254000014B1A607047C04600E100E080225201014B1A607047C04680E100E010B50400FFF7F4FF2000FFF7D3FF0320FFF7D6FFFFF7E4FF10BDC04610B513F04DFB10BD4D
:40258000002243088B4274D303098B425FD3030A8B4244D3030B8B4228D3030C8B420DD3FF22090212BA030C8B4202D31212090265D0030B8B4219D300E0090AC30B8B42AA
:4025C00001D3CB03C01A5241830B8B4201D38B03C01A5241430B8B4201D34B03C01A5241030B8B4201D30B03C01A5241C30A8B4201D3CB02C01A5241830A8B4201D38B026B
:40260000C01A5241430A8B4201D34B02C01A5241030A8B4201D30B02C01A5241CDD2C3098B4201D3CB01C01A524183098B4201D38B01C01A524143098B4201D34B01C01ADF
:40264000524103098B4201D30B01C01A5241C3088B4201D3CB00C01A524183088B4201D38B00C01A524143088B4201D34B00C01A5241411A00D20146524110467047FFE73B
:4026800001B5002000F0F0F802BDC0460029F7D076E7704703460B437FD4002243088B4274D303098B425FD3030A8B4244D3030B8B4228D3030C8B420DD3FF22090212BAB2
:4026C000030C8B4202D31212090265D0030B8B4219D300E0090AC30B8B4201D3CB03C01A5241830B8B4201D38B03C01A5241430B8B4201D34B03C01A5241030B8B4201D3DE
:402700000B03C01A5241C30A8B4201D3CB02C01A5241830A8B4201D38B02C01A5241430A8B4201D34B02C01A5241030A8B4201D30B02C01A5241CDD2C3098B4201D3CB01A6
:40274000C01A524183098B4201D38B01C01A524143098B4201D34B01C01A524103098B4201D30B01C01A5241C3088B4201D3CB00C01A524183088B4201D38B00C01A524132
:4027800043088B4201D34B00C01A5241411A00D201465241104670475DE0CA0F00D04942031000D34042534000229C4603098B422DD3030A8B4212D3FC22890112BA030AD8
:4027C0008B420CD3890192118B4208D3890192118B4204D389013AD0921100E08909C3098B4201D3CB01C01A524183098B4201D38B01C01A524143098B4201D34B01C01AFF
:40280000524103098B4201D30B01C01A5241C3088B4201D3CB00C01A524183088B4201D38B00C01A5241D9D243088B4201D34B00C01A5241411A00D20146634652415B10AD
:40284000104601D34042002B00D54942704763465B1000D3404201B5002000F005F802BD0029F8D016E770477047C046014B18687047C046E01200200E4B70B500251E00C1
:402880000D4CE41AA410A54204D0AB00F35898470135F8E713F080FB084B00251E00084CE41AA410A54204D0AB00F35898470135F8E770BDA45F0100A45F0100A45F010070
:4028C000AC5F010030B50024A24208D0035D651C0C5DA34201D0181B02E02C00F4E7002030BD002310B59A4203D0CC5CC4540133F9E710BD03008218934202D01970013325
:40290000FAE77047134A1088810703D08107890F401A001D11791030484381B25088820703D08207920F801A001D800040180A494030098980B2CA0701D0503080B2890738
:4029400006D504495422091F09785143081880B270470000300F0020C013002010B501F011FF10BD10B501F0CFFF0BF06BFE10BD10B501F00DFF10BD10B500F05BFA10BD73
:4029800010B50749044609780220002907D1204601F05AFF002802D120460CF0FFF810BDCC10002070B504460120002C12D02368002B0FD0616800290CD0074D0622288919
:4029C000208118462968FFF78CFF6968606809780170002070BD0000C0130020FFB585B0002768460E9D07734F481C460078002802D0082009B0F0BD10990F9801900095A9
:402A0000029105A807C800F007F90028F2D16946264603AB84460873002C19D0002115E08A00B75A082F09D990198078002805D0083FB7521878401C187005E0002914D06B
:402A40000027B75290198770491CC9B2A942E7D360460028CED10F98002809D0109901F041FA002804D00120C4E701208446EFE701F08EFE2D4800214160816005990160FA
:402A800021888180022D07D3A1798171A17AC171A1890181218A418100211EE0481C19E082008B00A75AE65ABE46BE4211D26F463E80B4461E190296B678BE700196764655
:402AC000E6521719029EBB78B3706646A652019EBE70401CA842E3D3491CA942DED3134822460C3000906846037B0799069800F01BF90028B8D168460B4C007B60700B48B9
:402B00000C3001F081FE0028AED1084907480C3109F03EF80028A7D109F058F80028A3D10121217066E700002A0F0020B4130020F8B5054636480F460078002802D002240E
:402B40002046F8BD002F60D000243249002D16D02A89D0070DD02868002808D003881B3BE12B04D24088FB2801D81B2801D2012409E0900707D56868002804D1F7E7002049
:402B8000088108604860002CDAD122482E8906811F481B21801D01804180042101711C490020891C0870F00705D019480622801D2968FFF796FE1749B00703D56A68144818
:402BC00012788270124D0E46AD1D281F0D60486001F060FE284601F04FFE30890FF07CFD30890EF06DFF28880EF070FF30890FF0DDFE03461033FFF785FE1F21C0188901DA
:402C000040183880A91F88809AE7012498E700002A0F0020C0130020FFB58446384F1C460020BB883F78054602460646002F11D100290ED0029999420BD36146002908D0CF
:402C4000002C06D00A99002906D02E4B0B99994202D2012004B0F0BD002144E0AB001F19BF78002F3BD0E35A002B38D07B43591889B22B0000F04AF8050410161C253100F1
:402C8000A7782388BC46FF27233BEB37BB4222D26346032B1FD322E0A388002B1FD0302B19D31CE02389002B19D0282B13D316E0A289002A13D01346134F233BBB420AD245
:402CC0000DE0268A002A0AD033460F4F233BBB4201D2964203D901200EE0002001E000280AD16D1CEDB2099B9D42B7D31C2463435B1802998B42ACD89642AAD8AAE7000002
:402D00002A0F002079020000BAFF000030B47446641E2578641CAB4200D21D46635D5B00E31830BC18470000FFB583B0002469460C801F4606468C80002806D00598002880
:402D400003D004983043800701D0012466E0002FFBD03449049809888842F6D3FFF7B0FBFFF79EFB00F012FC002855D100F07AFD002851D12C49084601F0E8F805042D0C74
:402D80004AD12A480499066081800021C18007810C98007AC00704D0684601F012FD040007D10C98007A800703D501A801F01EFD0446BF1DFEB2002C20D13146059800F02C
:402DC0005DF804001AD10FF0FFFD040016D16A461088928808368518144AF1B29088D288AEB29319984207D3401B801A80B201F09DFB050007D000E0FF25012400F05EFA3C
:402E0000002D04D008E0F8B200F01CF9F6E700F081FA07490120087000F0CAFB204607B0F0BD00002E0F0020692F0000CC130020360F002010B503480078012801D101F07D
:402E400017FA10BD360F002070B5084B0446DA889E8800205518B54206D81D68AA182260DA885118D98070BD032070BDCC1300200148008970470000CC130020F0B587B096
:402E800007460D4600208900009006916846FFF7DBFF844600285DD1304800990160002117E02E4B88001A680629115406D22C4C0419667882185670628805E0C419203CB0
:402EC000A67A8218567022891B68C018491C4280C9B2A942E5D300242DE0601CC2B2059025E01E4FA30039689600581840887118039604904E88B04217D938466F46FE80AE
:402F0000B6464F786E4677710297049F4F800168039F5E18767879184E700168764659184E800068029F18184770521CD2B2AA42D7D30598C4B2AC42CFD36046002809D142
:402F400068460699FFF780FF8446002802D1054900980860604607B0F0BD0000380F0020D05F01003C0F00207047000010B5002809D005494A68002A05D0011F08788000D4
:402F8000105801F081FA10BD380F002010B50446FFF76EFFC0B2801DA0420CD307484068002808D0A100405801F0E0F9002801D00470001D10BD002010BD0000380F002022
:402FC000F8B516460D460446FFF752FFC0B2801DA04203D20020C0430090F8BDB2B2E9B2684601F0E9F90099481C03D0024AA000526811500098F8BD380F0020F8B50746B1
:40300000FFF736FF801DC6B20A49002005460C680DE06178002907D06188B94202D32078FFF7B4FF002804D1241D6D1CEDB2B542EFD3F8BD380F002010B5002801D0FFF76F
:4030400095FF10BD70B506460948002504680BE06178002905D062882078121D0023FFF7AFFF241D6D1CEDB2B542F1D370BD0000380F0020FFB581B00A9F16000C4620D0C4
:4030800000F0F2F8054604281BD0002F0CD03846FFF7B4FF20492A0151184860002810D03A460499FFF71DFC1B4928010E504618778101980570200406D47D20C000444398
:4030C00004E0FF2005B0F0BD6404640C00F0BAF80746042807D000F04FFAA0420BD800F04BFA201A03E0204600F0AAFA0020F06035720020E6E700F03FFA009000F0B6FAFA
:4031000000980121001B009000F0ECF802493A0151180098C860E6E7D8130020F8B5060116483418217A042903D0E068002802D017E00020F8BD00F01FFA054600F096FAF4
:4031400000F0A0F804280CD001010C480F18F8680021451900F0C6F80020F860284600F06FFA6068054D002801D0FFF765FF042020720020A8516081E060DAE7D81300204D
:40318000FEB500266A46304601232549050169180D7A042D02D0C96800291BD000211154401CC0B20428F0D300246846005D002830D01B4821010818418947680568029170
:4031C000002101604160042241810272C160002E02D015E01354E3E700F054F804280ED001010F4808180190C6680021304600F079F801980021C160304600F021FA012610
:40320000002D07D038460299A847002F02D03846FFF712FF641CE4B2042CC6D3FEBD0000D81300200EB5002005216A4600901181508103486946006810F02BFA0EBD000059
:40324000400F0020074A0020010189180B7A042B02D0C968002903D0401CC0B20428F3D370470000D81300200549002002015218127A042A03D0401CC0B20428F6D37047B4
:40328000D813002030B50A4B04200A4C00210A011219157A042D06D0D268002A03D09A4201D808461346491CC9B20429EFD330BDFFFF0000D81300207047000030B500204E
:4032C000074C05460423020111190B72A5504D60401C4D81C0B2CD600428F4D330BD0000D813002030B5094C00231A011219157A042D04D0D568002906D02D18D5605B1CA5
:40330000DBB2042BF1D330BD2D1AF7E7D8130020002070471CB5002469460C70142001902346054A054810F0B9F904480068401C00D1FF2420461CBD91330000400F002007
:403340003EB5124A0146FF2000230124126800290DD0012914D0042908D104206946009308814B81104610F094F980B23EBD68460093048143816946104610F085F9F4E709
:4033800068460093048143816946EBE7400F002070B545890468416800890300FFF7B6FC08280509091E22282628002007F09AF81EE0022908D0C8B22A4621460EF0CCFA9B
:4033C0002046FFF739FE13E002202A4621460EF0C3FA2946204600F00DF809E000200FF057FE05E02046FFF7CBFE01E0FFF78AF8002070BD014B0022DB681847440F002039
:4034000070B5448905680089022803D0032809D0FF2070BD2246094C0023A46829460120A04708E0FFF7A4FA241DA2B200232946022008F060FA002070BD0000440F00201D
:4034400070470000024800214160018041807047440F002070B50C46002186B016460391012802D0022859D116E003A9012008F097FA01281BD1039D324621462846FFF7CC
:4034800030FA0095287801900220694608814E816846FFF7B5FF41E0214D002B686809D0049004A9022008F07BFA01281DD0022006B070BD002812D0298840182146FFF7DD
:4034C00010FA28880024801980B228806988091D884206D12C801348FFF792FF03E00320E6E788421AD96C6018E004986860E278A378110219430B4A698000231060E3568F
:403500005360032313815181A1788170E178C1706178417021780170042028800020C7E7440F0020181400203EB515460C46022803D004280CD000203EBD009101900220C7
:403540006946088107484A81006810F0A2F807E00EF002FA044B0022DB6829462046984701203EBD400F0020440F0020014AD16090607047440F0020034801688068081A5C
:403580000A214843000970472414002010B5FEF78BFF482204490548FFF7A3F903490120C870002010BD0000EC5F01002818002010B5FEF771FF10BD70B5134C2368002BF4
:4035C00008D0207B1149C20705D04008400020738868A08070BD88680B4AA18880B29268814203D90A4D691A091802E0814202D2411A5118A160A080A0689842EAD310F0D7
:4036000065F800F013F870BD24140020C0102E40FFFF000010B508461946FFF7A7FF10BD704710B5FFF780FF10BD000003480021016041608160C160704700002414002059
:40364000024610B5FF20002A0CD0FFF7EFFF064C0321207B0843207310010A21FFF716F82060002010BD00002414002000B504480A21806848430209FFF7D8FF104600BDB6
:40368000241400200248007B8007C00F704700002414002010B54B490868002802DA4A4B01221A70022290430860484800694549C00B4031096A0246C907C90F0A4259D07F
:4036C000012000F097FA3F480E216C30FEF740FE3E4820218430FEF73BFE3C4814219C30FEF736FE3948FF21C131A430FEF730FE3648FF212F31B030FEF72AFE33483449CF
:40370000BC30FEF725FE31483249AC30FEF720FE30492E48491CB430FEF71AFE2B482E49B830FEF715FE29482C49CC30FEF710FE26482B490830FEF70BFE24482949A830D0
:40374000FEF706FE214828498830FEF701FE1F4826498C30FEF7FCFD1C481921C9029030FEF7F6FDFEF7F6FDFEF7B2FEC0B2022812D01FE000290BD0002101420AD0114894
:4037800001216030FEF7E4FD0120FEF781FE97E70121F2E7FF2010BD15491648FEF7D8FD14481549001DFEF7D3FD124800210830FEF7CEFD54200449C043891C08700020F1
:4037C00010BD000000F02E40540F002000002E40320300002F3F00003102000010520000EC160000FA12000031D000003AE300009956000080012E40F80F000070B50646F3
:40380000581C80B245086D00002408E0304600F0C1F81055000A1119A41C4870A4B2AC42F4D3D80705D0D0182038D15CC47FD454C17770BD30B50A4C002100195B1E07E01B
:40384000541864782502545C2C430480891C89B29942F5DB994201D1515C018030BD000000102E4010B5FF2000F0C4F90F49FF2048700E481021801D41800121417001707C
:403880000A490020C91C4870FFF704FF04000AD100F010F907210648FEF758FD044807211830FEF753FD204610BD0000540F0020CC112E4070B5002405465B1E0AE0284600
:4038C00000F068F8010A161971702D1D1055A41CADB2A4B29C42F2DB9C4203D1284600F059F8105570BD000070B500210A4D5B1E0AE0541864782602545C344346193480F1
:40390000001D891C80B289B29942F2DB994202D1515C4019018070BD00102E40F0B50599091FCFB200217E1E0BE0541864782502545C2C43164D45192C80001D891C80B24D
:4039400089B2B142F1DBFC0712D01C78515C24020F4A0C4381180C809C785D78001D210280B2294384182180001D80B2D9780CE059781A7809021143054A84182180001D39
:40398000D9789B78090280B2194380180180F0BD00102E40014940180088704700102E4010B50B490020487000F084F8002000F047F9002000F034F907210648FEF7C6FC50
:4039C000044807211830FEF7C1FC002010BD0000570F0020CC112E4010B50B46062812D006DC01280CD0032801D1FFF7D9FF10BD0A28FCD00B28FAD105480078107010BDE8
:403A0000FFF730FF10BD1146184600F035F910BD5A0F0020F8B5244DAC6A0127A007234E002816DA307806280ED1286A384328621F480069F903084381B21D481030FEF7AF
:403A400087FC042000F0D6F8174802212830FEF77DFCE00718D000F05FFF01280FD1002000F0ACFF062000F0C5F81049FF20C91E48707078002802D1686B384368630A4880
:403A800001212830FEF762FCE0050BD53078042802D1052000F0AEF80348FF2101312830FEF754FCF8BD000040F02E40570F002000002E4010B503212348FEF749FC0120E2
:403AC000FEF7E2FC20483038406A204C80076178800F890001431C480C38FEF739FC6078002808D0401E022181401820FEF7B8FEC000083800E0B82081B21548FEF728FC21
:403B00001348032109021438FEF722FC10481149B830FEF71DFC612189010F48FEF718FC0D480321001FFEF713FC0C490C48FEF70FFC0B480B496038FEF70AFC0848012197
:403B40008838FEF705FC10BD70F02E405A0F0020D8102E4090890000041E2E40FF0F000058122E40209000000849087806280BD148780749002803D1486B40084000486309
:403B8000C86A01221043C86270470000570F002040F02E400148007870470000570F002000B50300FFF7B2F8080D050D0B070507090D012000BD032000BD042000BD0220E6
:403BC00000BDFF2000BD0000074A9168D26889B2064B92B2994204D105498A4201D1012100E000210170704780002E4033D000003FE3000010B50446FEF752FC072C01D97F
:403C0000FF2C01D102480470FEF746FC10BD0000570F00200149487070470000540F002010B5064A012805D01921C9021046FEF78FFB10BD1D21C902F8E7000090002E4063
:403C400010B50A4A141D012808D009491046FEF77FFB08492046FEF77BFB10BD04491046891CFEF775FB0349491DF3E788002E4031D000003AE3000070B50C460546FEF7EF
:403C800027FCC0B202280E49287804D0FF2810D04C280CD810E0FF2809D10A4AD0680004800F032801D0087807E09069000A553803E00878207070BD4F382070087070BD3C
:403CC000560F002000002E40F0B50122002834D0002932D00424420600D00524792342065B06D21800D0641C034600221EE00C2516466E43124D00277519AF72104F002A65
:403D0000BB51696007D0661EB24209D10D4E86197606760E05E05E06760E8027BE1B00E080269B198919521C2E81D2B2A242DED303480549006B002288611046F0BD00001A
:403D4000B016002079020000600F002018B50020694608700A48006900280ED0132149014018047E684604704F21C900054800F059F8A04201D0012018BD002018BD00009F
:403D8000600F002034140020074900200C2242435218927A012A05D0401CC0B20628F5D30020704701207047B0160020F8B50E000446154609D0194F19497868A04202D97A
:403DC0004018A04201D38D4201D90120F8BD31462046FEF777FD00281ED02A4631462046FEF77FFDE8B200210C224A43D21913895568EE18A6420BD90126641B1B1B9672AC
:403E0000834209DA1469C01A044AC0B220329676491CC9B20629E7D30020F8BDB016002079020000034610B50020024604E09C5C2018521CC0B292B28A42F8D310BD000054
:403E400070B500F05FF8084C064A216907480D46FEF747FD05492846FFF736FFFFF776FF207070BD79020000600F002034140020002070470020054A002902D0012902D00F
:403E800002E0906000E0D06000207047600F002070B5084C154608460549E26889182A46FEF71FFDE0684019E06028B270BD000034140020600F00203EB50A226946FFF73B
:403EC000E7FF044606480A2200686946FEF7FAFC002802D00020C0433EBD20463EBD0000640F0020002802D0044A914201D2FF20704703494A610861002070477902000094
:403F0000600F0020024800218160C16070470000600F002070B5074C15460548A26880182A46FFF743FFA0684019A06028B270BD34140020600F002010B503490A220968C8
:403F4000FFF7E8FF10BD0000640F002010B50F4A002313600E4A13600E4B18600E4801600E49012008600E490860000290600E490C4808600D4914300860FF381538506023
:403F800000F0BCF800F0CAF9002010BD940F00207C0F0020A80F0020AC0F0020980F0020880F0020F81700208C0F0020A00F0020014610B50020002910D0094B1A689C6857
:403FC0005118A14209D25868196080188A0704D08A07920F891A091D196010BD002010BD7C0F0020F8B50024164E671E321F3D463168136806E01422624310328A58521C96
:404000001BD0641C9C42F6D36A1C14D02C461422544322460C3288500C214843FFF7C8FF3168002808510AD031680020103408517068401C70602846F8BD2546E4E73846AD
:40404000F8BD00008C0F0020F3B50026F64381B000281BDB1E490968884217D80299002914D01B4F142204463F1D54432546396810354859401C09D0FEF712FA38682F1F4E
:404080004159C359994203DBFEF706FA3046FEBD214608310091465801590C20704308180C220299FEF71DFC0948761C001D0068C159B14200D100260549009A091D86501C
:4040C00008684159491C4151FEF7E6F90020FEBD880F0020002803DB07490968884202D90020C043704704491422091D096850431030085870470000880F0020F0B5002093
:404100000D4A451E0346171F50600FE014260146714314680E1DA3510C461668083433511668083435511468401C635039688842ECD30020F0BD00008C0F0020F3B50026FC
:40414000F64381B0002841DB2349096888423DD8029900293AD0204F142204463F1D54432546396810354859401C2FD0FEF798F93868415900292BD0211D009146580C215A
:40418000005971430F46C1190C220298FEF7A9FB11480021001D0068761C00590C34C0190160416081600C48001D00680159B14200D100260849009A091D8650086841596E
:4041C000491E4151FEF768F90020FEBD3046FEBDFEF762F9FAE70000880F0020FEB504460D4600201E49089E0860471E009001900290002C11D0486885420ED2002A0CD015
:40420000002E0AD0642E08D808460C3001681C2068430C18207A002801D03846FEBD0120226020721846FFF7DDFE6060401C13D06681A6810A4827610C3067610179A94286
:4042400000D205710021684601810A462846029B00F040F82846FEBD00202072DDE70000940F002038B50124009400F039F838BDFEB50027164EFF433D4600240EE01C20B3
:40428000316860430818017A002906D04068FFF721FF002801D0254603E0641C3079A042EDDA681C12D01C2130684D434419FEF7F7F869466068FFF741FF0546FEF7ECF874
:4042C000002DD9D1216868468847D5E7FEBD0000A00F002038B50024009400F001F838BD1FB500220C49541E0A60002811DB496888420ED808491C220C310968504308188C
:40430000406801A9FFF7A0FE401C02D0002004B010BD2046FBE70000940F0020F0B50021114A4D1E174611710C3F0B46BD6016E008461C2460431668041D35511468064685
:40434000235014680836A3551468361DA353044616680A34335318301468491C255078688142E5D30020F0BDA00F002038B500210091002811DB0F49097888420DDA0D4D9B
:4043800004010C3529680859002807D0201D0818694600F06FF9002801D0002038BDFEF77FF828680F34015D491E0155FEF774F8009838BDB00F0020F7B582B00025029890
:4043C0006E1E06602E48D21C024017462D4A2C4610460C380178106805E02301C358002B0FD0641CE4B28C42F7D3711C28D03401211D40180191039900F02AF900281FD1CF
:4044000001E02646F1E71F48016820460C300F521C480399026820460E30115419480399026820460F3011540398784300F0A0F8144900280968085102D00024009011E0FC
:4044400001251AE00F48016801980818009900F02CF9002801D0012502E00098C0190090641CE4B203988442ECD3002D05D10298066004480179491C0171284605B0F0BD4D
:40448000FCFF0000BC0F0020F8B50D4600216A468C461180002839DB23490978884235DA214B04010C3319680A59002A2ED020460C300B5A801C0E5C184670438018954297
:4044C00024D3854222D2002006E007465F43BF18AF4206D0401CC0B2B042F6D36046002814D0114E271DC8190C366A46294600F006F900280AD168460088012808D0306896
:404500002946C01900F0D1F8002803D00120F8BD0020F8BDFDF7C4FF30680F34015D491C0155FDF7B9FFF3E7B00F0020F8B50F46002400F031F8002817D10C4900220B46AD
:404540000C334A600EE021011D680E466A501D680C36AA53B61C1D680F31AA551D68641C6A54E4B2BC42EED31A71F8BDB00F002000280BD0C01C074A810850688900538849
:404580004118994203D89368516018187047002070470000B00F0020F8B5064600200F4D009029700C0121466846FEF74DFC00280CD129460C3100980860301B001F84B254
:4045C00021466846FEF740FC002801D0FF20F8BD6C800098A8600020F8BD0000B00F0020F8B5002827DB19490978884223DA174C05010C342168485900281CD028460C3056
:40460000085A009028460E300E5C401C0E5420682F1DC01900F064F800280CD12068002445590EE0094829460C300068C01900F03CF8002801D00120F8BD00982D18641CF1
:40464000E4B2B442EED30020F8BD0000B00F002030B50D4604000BD0A800FFF789FF6060002805D000202570C0436080002030BD012030BD70B50D46040005D0002D03D03B
:404680000220205E002801DA012070BDFDF708FF0221615E60688900405828606088401E6080FDF7F9FE002070BD70B50D46040007D0002D05D002212078615E401E81426D
:4046C00001DB012070BDFDF7EBFE6088401C00B26080616880000D50FDF7DEFE002070BD10B5040009D0227800216068FEF702F90020C0436080002010BD012010BDF0B582
:4047000000231D46002802D00224045F0AE00120F0BD46689F00F6598E4201D1012503E05B1CDBB29C42F4DA15700020F0BD00000148007870470000C40F00207CB5054688
:404740000024FEF715F9A8796946087000A8062229460130FEF7C5F80021684606F0ACF90C2806D0072806D01F2806D0122806D006E0022404E0042402E0272400E00124B8
:4047800020467CBD01480121417270473019002010B500F0A1F9FFF7FDF9FFF701FA10BD70B504460025FEF7E3F8002C06D0A079012803D8214602F023FD00E001252846B3
:4047C00070BD01460120002902D05020088000207047000001460120002903D0024800780870002070470000C60F002001460120002905D003485422007850430880002016
:4048000070470000C60F002010B502460D49FE204870032410460FF05FFA002810D10FF003FA00280CD107F017F9002808D100F049FB002804D106F0E5FB002800D1002488
:40484000204610BDC40F002070B50025044600280ED0A07901280BD8FEF78AF8A0790028204602D003F0D0F803E003F0A5F800E00125284670BD0000014610B5012000293E
:4048800004D006220248FEF72CF8002010BD0000D00F002001460120002903D0087802490870002070470000C60F0020F0B589B015460F4606460124FEF75AF8002E20D0D6
:4048C000002F1ED0002D1CD0102239466846FEF708F81022314604A8FEF703F8102168460FF01CF9102104A80FF018F92B46102204A9684604F054F9102128460FF00EF925
:404900000024204609B0F0BD10B506F051F804F041FA06F0E9FE10BD0148007A704700003019002038B504460120002C20D0617801291DD800290BD0FF25E535FEF718F814
:404940000C4828180088C0B22070072803D00EE0FF25CD35F2E70020694608706846FFF733F969460878012801D108202070002038BD000000102E40014A002192681047E1
:40498000C40F002008B500226B461A7026280CD0094A342852680BD0352805D1900703D50021352007F034F908BD19462620F9E7D007F9D03420F5E7C40F0020014908726F
:4049C0007047000030190020F8B504460120002C26D06178012902D92278092A20D8002905D0FF25E5352078092803D004E0FF25CD35F8E708202070FDF7BAFF2078114F9C
:404A0000114E08280DD00020FFF71AF970780128207810D00D4969180880FE2070700020F8BD0120FFF70CF90720B8810549203188800120F2E7B88102482178203081809C
:404A4000EBE70000C0112E40C40F002000102E4070B50E46050001D0002400E00C4C002C11D0E28A500609D5D107C90F022003F0C7F8E08A40218843E08204E0D107C90F4C
:404A8000012003F0BDF83146284602F02DFD70BD90180020F8B50546002004460D4E009013E022466946284600F0DEFF0098002801D00FF0F3F8A878214602F0DFFAA878B8
:404AC000214602F0CDFA641CE4B2308AA042E8D8F8BD00005C19002038B51E4CFFF75AF8042813D0052811D0062812D003282AD007280AD100206946087002460120FEF73A
:404B00006BFFFFF747F80128FBD138BD00F077FB38BD02F029FB00F072FB02F093FB8007800F0228F4D10C4841880029F0D05B21095D0029ECD101210170A07D01400220BC
:404B400003F05EF838BD02F013FB0120FFF752F838BD000090180020EA0F0020F8B50646002403F0CBF80546304603F0E1F803460A480021068A0DE001228A401046174687
:404B800028401F40002803D0002F01D1224394B2491CC9B28E42EFD82046F8BD5C1900201CB50020694648706846FFF7BBFE01AA69460A20FEF710FF6946042008561CBD19
:404BC00070B50D4601F036FB04000BD02079002808D0FDF7CDFEE178A0782A4602F00AFD002070BD022070BD0148007870470000681800204030C07E002800D001207047D8
:404C000000B500F001F800BD902148430749084A40186030417F491CC9B24177D289914201D300214177C8B270470000701800205C19002013B501F0FDFA04000BD001F032
:404C40009AFE002807D0214601AA0A310620FEF7C3FE00201CBD02201CBD000010B50C4601F0E8FA00280AD001F085FE002806D0224604490A20FEF7AFFE002010BD022092
:404C800010BD000051180020F3B581B0074601460026029803F02AF80446002F01D0002500E0154D002D21D0284601F0F9FA032C04D13946029803F075F806463846029959
:404CC00002F0CEF9032C06D0002C10D00121384601F0ECFB03E03146384603F069FA284602F07AF80221284602F090F8FEBD3846029902F0B5F9FEBD9018002010B5044661
:404D000000F066FA002804D103F01CFF002801D00C2010BD2078611C02F07EFDFF2801D01F2010BD02F0C4FDFF280AD02178621C02F024F9044821780068026B601C9047B9
:404D400010BD072010BD00001010002010B503F0F9FE002801D00C2010BD02F03FFD03480068C06A8047002010BD00001010002070B50D46044610210EF0D0FE102160182A
:404D800006460EF0CBFE334610221946204603F007FF102130460EF0C1FE02202870204606F066F870BD0000F8B504464078217802028006870FE0781143A6780905000230
:404DC000090D0643084601F035FA00210546F2B2002812D0002C10D0022F0ED0032F0CD0002A0AD00279092A07D0002A05D0134A5A23527E1B5C9A4207D82889002105F078
:404E00006CFF20460EF04AFFFF21002914D10C48224600682946436930469847C0B2FF280AD128464030817EF2B2491C8176FF232146284600F0E3F8F8BD00002818002070
:404E40002C1000200020704710B5044603F07AFE002801D00C2010BD2078611C02F0DCFCFF2808D002F014FC044821780068426B601C904710BD1F2010BD0000101000204D
:404E800010B500F06BF906F0BDF8002010BD10B5044600786178E2780843A17811430843217908436179084305D003F03DFE002803D00C2010BD122010BD204602F0A4FD8B
:404EC000002010BD10B5FDF703FB02F039FF044803F0A4FE02F0E6FB012000F003F810BD38180020F1B586B003A8009005A8019028489F22817A114081726846FDF752FD31
:404F0000002845D169460989C90705D0224806990068C2686846904769460989890706D5002835D11D480068816A0698884700282ED11B4E0025757075737571F5753576B1
:404F400075767575B570F570B5713746F5730120D03738731F20F880FF2130467972A0300176457600F0C8FA00242046069901F0ADFC002803D1641C2406240EF5D0FD7239
:404F80000749BD72B573C0310D704D704D600D7207B0F0BD281800202C100020101000207018002070B505460E46084602F0A6FE0446304602F0BCFE0121A9400A4622401A
:404FC00001400A4301D0012070BD002070BD10B50446084602F0ACFE0121A140014201D0012010BD002010BD10B5FEF7D3FD032804D102F0BDF80120FEF7FCFD10BDFEB50C
:405000001C4616460F46054601F0E6FEA878FFF7F7FD02460190334639460094284600F00DF8002808D1A8780199FFF711FDFF2C02D138460EF032FEFEBD0000FFB585B05E
:4050400005460E980C46FF2810D02B49C00009680A5840180179C0795278814201D9012601E09006860F6846038108E06078A1788006860FE07800020143684601812846D8
:4050800001F084FC070007D021462846079A00F07FFC384609B0F0BD304600F02DFD04AE0346039002AA29460096204600F0B9FB3C20405D002818D0284601F067FC01280F
:4050C00013D0684600890096C0B20190A878231DFF22079902F0BCF968460089039BC2B2A878079902F05EFDD3E7684600890021C0B20091E9E7000028100020F8B50026CF
:4051000000253046FFF72AFD07001DD090201149704340186030447F12E0601CFDF7B6FACCB23846E040C007C00F07D02146304601F08EFF21463046FFF7A6FD6D1CEDB2C7
:405140000548018AA942E8D8761C3606360ED7D0F8BD0000701800205C19002010B502F0A1FA0020FFF7BEFE0EF02EFE002010BDF8B5002400F0BEF80123012800D101240C
:40518000104F00203E4620360425082203E0002801D0002100E031460979002907D001290BD002290BD0114681402143CCB2401C0006000EEBD07C70F8BD1C43F7E72C43F0
:4051C000F5E700007018002010B5FFF7D1FF10BD10B5044606F073F8002802D1601C00F001F810BD1CB500240094062269460194FDF768FB002800D1122420461CBD10B5B7
:40520000FCF7EFFE0446FEF7C5FC012809D0FEF7C1FC022805D0FDF78BF82046FCF7E5FEEEE72046FCF7E1FE10BD10B50B4681791943817103D08078114602F04FFC10BDC4
:4052400010B582798A43827102D1807802F05AFC10BD000030B50C4C0220A28A0B4B9978002901D0022906D11D785B78EB18282B01D9032002E0032900D101205105490D79
:40528000C0020143A18230BDC0112E40E00F002000B500F035F8002807D0012805D0032801D0042801D0002000BD012000BD000002460448018B0020C908114200D00120B2
:4052C0007047000000102E40014600B50020C90701D000F00FF800BD014600B50020C90701D000F007F800BD0148006870470000D80F002001480088000A704720102E4000
:405300000448008B410501D5042070474007800F7047000000102E400148406870470000D80F002038B50446000610D5FFF7E8FF01280CD1684601F02BFF6846007800F001
:405340002BFB012001F0B0FD0220FFF73DFF600708D507480179012904D1002101712620FFF710FB0348006801692046884738BDE40F00201010002010B501460A4A00789C
:4053800000241070FFF7B6FF0128084603D002F0A7FA204610BD00F0E7F80400F9D1034801210170F5E70000E00F00203019002070B50446FFF79EFF002801D00C2070BD6B
:4053C000A27B01211F48002A827801D00A4301E05208520082706279012A14D0C17849084900C170184D2868016820468847207901280CD06188208803F056F9208020791B
:4054000004280FD015E0C2780A43C270EAE72868C168E01D8847E01D02F0E2FA0B48808C208006E02868C168E01D8847E01D02F0D7FA074920798870204602F05FFA0020B6
:4054400070BD0000701800201010002028180020E00F002008B50178FFF74CFF814201D10C2008BD002914D0072069460870FFF70FFF012807D10121684600F0E5F8012885
:4054800001D0092008BDFFF7E5FE02F06BFA012011E0FFF7FDFE012806D1684601F078FE6846007800F0ACFA02F052FAFFF722FF0028FBD10220FFF787FE002008BD00005E
:4054C00010B501460A4A007800245070FFF712FF0128084603D002F0E1FA204610BD00F065F80400F9D1034801214170F5E70000E00F00203019002038B568460EF064FB1A
:40550000002801D01F2038BD01210098C90201804180002505714571857107214173857302F0ECF9009C202200212046FDF7E2F925702A460021601CFDF7DCF9204602F08E
:40554000CFF9204602F0AAFA00980EF0A7FB062200210448FDF7CEF902480C388560002038BD0000E40F0020F8B5044600250D4800950078012806D068460EF025FB0028D3
:4055800003D007250CE00C250AE0074E009830602278611C401CFDF7A4F93168207808702846F8BD30190020D80F0020F8B5044600250D4800954078012806D068460EF0BF
:4055C00003FB002803D007250CE00C250AE0074E009870602278611C401CFDF782F97168207808702846F8BD30190020D80F00200346084800B5834209D8184600F01AFE0A
:40560000002804D00089984201D1012000BD002000BD0000FF0E0000074A9179491C8906890E917138220A4092014907090E1143084302490840704770180020FF0E00004D
:40564000C006C00E70470000F8B507460E4600240D4803E0002C01D0002500E005462979002905D0641C2406240EF3D00020F8BD0021204601F02AF92E712046FFF7CCFF73
:4056800028813C700120F8BD9018002010B503F0BBFA0222002100F003F801F09FFF10BD10B5094B40074907000F090F185A595A40185043C0086421FCF7E8FF002800D1F7
:4056C000012080B210BD000034600100F7B53D20405C88B015460C46002802D02878042802D200200BB0F0BD6946087200262046FFF780FA012800D00126204603A938308A
:405700000191009023460327A17E34333246206A03F09EFA02A8089900900B46019120463A4603A9243003F01BFA02466846007A2870204601F0B6F81046D3E7FFB587B0ED
:405740000C4605461078694608723D20005D1746002826D000262046FFF74CFA012800D00126204603A93830019100902346A17E34333246206A03F06BFA02A80090291D59
:40578000019120462B1D03A924300A9A03F0E8F902006846007A388002D1204601F082F810460BB0F0BDF0B505463C20405C89B016460C4600280CD0307869460873002820
:4057C00006D000272046FFF715FA012803D003E01F2009B0F0BD012703200890204604A93830019100902346E17E34333A46E06903F02EFA6846007B03A9281802900091F2
:4058000020462B46019504A92430089A03F0DCF902466846007B3070204601F04DF81046D7E7FFB505463C20405C89B016460C46002810D0084601F0A9F801280BD030884D
:4058400069468883002809D000272046FFF7D2F9012805D005E000200DB0F0BD0220FBE70127204603A93830019100902346E17E34333A46E06903F0EBF9291D2B1D07A8DE
:40588000129A6D4607C5204603A924300C9A03F09BF902466846808B3080204601F00CF81046D9E770B50D460446FFF7A3F901280AD0E87AA97A00020143A07801F08AFD56
:4058C000012808D0002070BD00222421204602F03DFE242070BD28214C200155204600F0B1FB282070BD0000002801D0002000E003484030C07F012800D0002070470000AA
:40590000901800200146002049070ED50021084B03E0002901D0002200E01A461279022A04D0491C0906090EF3D0704701207047901800200146002049070ED50021084B14
:4059400003E0002901D0002200E01A461279022A04D0491C0906090EF3D07047012070479018002010B5044680346068002803D00EF0A8F90020606010BD4030417070470E
:405980004030817070474030017070470171704792001018C166704770B53C2501F09CF9040004D020460021433001F061FCFF222946204600F0E8FB002C02D0A07801F07A
:4059C0000DF970BD10B5002801D0002000E00348002802D0008905F0C7F910BD9018002010B5002801D0002000E00448002804D00179072901D100F047F810BD9018002058
:405A000010B501F069F9002802D0807801F0E6F810BD00207047000070B50546008A00281ED01049F122897A1140C90618D5294640314A8A098A521C4A4392B2D10800D12D
:405A40000121540801E0621A94B2A042FBD9FEF76FFE012804D1298AA878224601F080FD70BD00002818002010B50023054C0B60248A944204D992001018C26E0A60C36637
:405A800010BD00005C19002038B5044600200090A079002814D14020015D052901D00E290ED168460EF0A0F8002809D12046009902F02AFD03481021C28A2046FFF7B5FB72
:405AC00038BD00002818002010B50B4604460146184602F09BF9002802D020460EF0E8F810BD13B5044601AA11460620FDF774FF6846818861811CBD002800D102207047D6
:405B000070470000F8B504462346401D543300909A1EA078911E01F057FB25464035A88A298A8000FCF7B2FD401E81B2688A884203D96982A07802F0ADF8698A8C2001517D
:405B400020460021433001F093FB27480088E88103F05AF8E989891C8AB26179FFF7A0FD01F03CFD03F050F82A8A6179FFF798FD074601F027FD688A002806D01B49088A81
:405B8000032212021043088202E0002002F076F81648803801886E8A002E0CD0304648431349FCF75DFE0004000C01D0401C80B21049488002E00F4800214180288A704311
:405BC00081B2A07801F078FFFF2228374932B9B21346204602F06CFDE98AA07801F0CCFEA07801F06FFAF8BD80102E40E0112E4071020000EA0F00207FB504468034616821
:405C000005460E46183108226846FCF76AFE31462031082202A8FCF764FE102168460DF07DFF6068102108300DF078FF60682B46083024331022694602F0B2FF7FBD10B50E
:405C400004460821FFF7FCFA10212046FFF7F8FA207905281FD006281DD008281AD12189002004F0F9FF072020712046FEF7C2FF014620464030012913D00E2101700021E6
:405C80000176204600F0BCFF2046FFF76BFE2046FFF7C2FE10BD20890122002104F0C0FFE1E70521EAE70000FFB581B01F4604460821FFF7C5FA10212046FFF7C1FA2079FC
:405CC000082803D0092804D0042203E00422012501E009220025204600F044FE264600204036307022712046FFF73CFE0398002D02D0012808D00BE001280AD1208900225E
:405D0000029904F08DFF04E02189029804F0A4FF012700203076012F04D0204600F070FF05B0F0BD02983073204602F03BFC054605480121C28A2046FFF777FA002DEFD1E4
:405D400009202071ECE700002818002070B50C460546FEF74FFF012809D108212846FFF76FFA0023012221462846FFF79DFF70BD10B5044600F0F6FD2046FFF7F3FD0021FF
:405D80004034217010BD70B505461A24FEF732FF012809D108212846FFF752FA0023012221462846FFF780FF70BD0000F8B50446002000900E4668460DF016FF002801D0F0
:405DC0000D20F8BD8420005908212030009D00F02CFA20460421383000F027FA002E02D1204600F0FBFD2946204602F01CFB0E480821C28A2046FFF718FA204600F071FF68
:405E000025464035002808D0204600F023F8002801D0092028700020F8BD08202870204600F0DAFFF7E7000028180020014610B540310A460978082906D0092907D00A29C4
:405E400001D100F091F810BD0B20107010BD00F001F810BD70B50446007925464035052805D0062803D008280FD00C2070BD03220621204602F06AFB0D480821C28A204670
:405E8000FFF7D3F91120287010E006202873204602F088FB0646AA8A0A20424301212046FFF7C3F9002E01D109202071002070BD2818002038B504460020009068460DF069
:405EC00093FE002801D00D2038BD2046009D00F0C3F908202071204600F080FD2946204602F0D4FA00213D2001550F2040210855204600F071FF002038BD00B5024600F09D
:405F000031FD10214032117000BD10B50446FEF771FE012809D04020005D112805D100231A4606212046FFF7BFFE10BD10B5FFF786FE10BD38B504460021684600910DF0E1
:405F400053FE00280CD12046009902F020FB05480821C28A2046FFF768F90D204034207038BD00002818002038B504460021684600910DF039FE002801D00D2038BD20466E
:405F8000009902F0F9FA05480821C28A2046FFF74CF90C2040342070002038BD2818002000787047F8B5002569460D70002801D0002400E01F4C002C18D0204600F0DBFC85
:405FC000002813D0207903280BD005280CD026464036B18AA07801F079FDB078012806D01DE0042020711DE006202071F8BD0021204601F028FF274680373868002802D0B3
:406000000DF060FE3D600020B0702079072802D12046FFF701FD0221204600F0F7FE20790428E3D1207A694608703420FEF7AAFCF8BD00009018002010B54C22115400F097
:4060400052F810BD10B50446FF21FFF7F9F809202071A07801F060FD10BD000038B5FF216A461180002801D0002400E00B4C002C12D011460620FDF7AFFC6846018820469D
:40608000FFF72FFD204600F087FC002804D104480068C1692046884738BD0000901800202C10002010B504468079002809D022214C200155FF212046FFF7C2F8204600F022
:4060C00012F810BD10B5037902464032002B03D01173092B02D003E0002100E02221117300F001F810BDFEB504460089002700902781207926464036002817D0012815D068
:4061000002280AD112E002AA01A9204601F06CFE002807D101980DF0CBFD204601F08CFE0028F0D02046FEF7B5FCB776254680352868002802D00DF0C5FD2F606868002801
:4061400002D00DF0BFFD6F60317B002919D0009800F064F8A078002100F0D0FF2046FFF795FAA07801F020F9A07800F037FDFF212046FFF765F80B20FFF726F800F068FC76
:40618000FEBD1F213173E2E7F8B517460E46054602F036FD04003CD020460C3001F058F82046062200211830FCF7A4FB2046062200211230FCF79EFB164822460068394603
:4061C000436A28469847074626702846FEF712FD012148406070002D10D02889608028464030C1782171002E0FD169796171018AE180418A2181808A608106E00648008BCA
:40620000C005C00F2071002060803946204604F0A6FCF8BD1010002000102E400A4610B50146002004F0B8FD10BD10B50DF052FA10BD000000B50146FFF702FA002801D097
:40624000002000E00348002802D002898A4200D0002000BD9018002038B5044680346068002806D168460DF0CFFC002801D100986060606838BD000010B5014600F086FB59
:406280000128887802D0FEF7BFFC10BD90214843024940186030007F10BD00007018002070B5054604464035A87F012811D1A1789020084A484380186030067F3046FEF7E4
:4062C00071FE002805D10220A877A078314601F015F970BD7018002010B50C4CA07A002813D0FEF70BFF0A48027F417F408B00F0B7FB012809D10020A07200F05FFF05497B
:406300008989090B01D000F03BFA10BD4019002070180020A0102E4070477047490510B5490F0B00FCF7F2FC060704080C0C0F073E21FFF781FE10BD0821FFF7C3FE10BDDB
:40634000FFF7D1FE10BDFFF7ADFE10BDF8B507460025002D01D0002600E0204E00F0F2FE3046403044890021418100F0F5FE304600F001FB01282BD1A00702D52846FFF7CA
:4063800011FEE00602D52846FFF768FEA00601D5FEF7B4FE600601D500F014FB200602D5284600F01DF8600702D5284600F02CFA380402D52846FFF713FB780402D5284671
:4063C000FFF700FBE00703D021463046FFF7A6FF6D1C2D062D0EBCD0F8BD000090180020F8B5002801D0002400E0284C002C4BD025464035A878012846D1FF278820493787
:4064000000593E46002805D02149897A890601D5878AC68A2046FEF7EDFB012834D002F0F3FB2A8A6179FFF73BF9009001F0CAF800983346283081B23A46204602F038F95F
:40644000E98AA07801F098FA12480188688A124E002810D048431149FCF702FA0004000C01D0401C80B27080A07DC107C90F002001F0C6FB01E000207080288A698A4843EE
:4064800081B2A07801F018FBF8BD0000901800202818002060112E40EA0F00207102000001490968096808472C10002070B50D460026194A0146002801D0002401E01446CE
:4064C0002034002C26D0204600F060FA01280AD19020484380186030007FFEF763FD002801D101F0DFFF0D48006881692046884700280CD020464030817EA94202D3491B99
:40650000817600E086762089294604F0E6FB204600F062FC70BD0000701800202C10002070B503460088FFF785FE040013D000F022FA00280FD02079092819D0254699781E
:4065400040352973204602F02DF80646A878012803D0AA8A02E0022070BDEA880A20424301212046FEF761FE002E01D109202071002070BD0EB5002217216B4602921981C0
:4065800000905A810120029B00990DF03BFC0EBDF8B518480024807A002822D1164E0025B089000B22E0204600F0D8FE1249A039401807882A462146384600F051FA012805
:4065C00010D00E480122478305770A4944778A72002D01D0002000E02030002801D000F0FBFBF8BDB089000B641CE4B20028DAD1F8BD000040190020A0102E4070180020EF
:4066000010B50088FFF716FE002809D0014640310C460978082905D00B2903D00C2010BD022010BDFFF716FC002801D009202070002010BD70B503460088FFF7FBFD0400F3
:4066400008D0254640352878082805D00B2803D00C2070BD022070BD8420005910220830991CFCF73EF92046FFF7C6FA2878082804D02046FFF778FC002801D00A2028707E
:40668000204600F0A9FB002070BD000010B50C46002121700088FFF7CDFD03000BD000F06AF9002807D00948F121807A0840C00603D4112010BD022010BD022020701A8ACD
:4066C0001889002104F084FB002010BD28180020F8B50F46002100910088FFF7ABFD040012D000F048F900280ED0E079410641D4617E02264A07002A08DB890740250029E9
:406700001ADA2843E07135E00220F8BD02F078FA0021017021894180A1898180217E4170E189C1803E7005460178134804F006F8284604F0F1FA1DE0204600F02DF9012888
:4067400006D068460DF050FA002803D00720F8BD2A20F8BDE07900992843E071204601F04BFF607E0421304360760448C28A2046FEF75BFD0020F8BD1D040000281800203C
:406780003EB500220F236C460292238100910190628169460EC900200DF034FB3EBD0000F8B50F46054600F097FA040025D003202071254600264035EE76E6702046FFF73F
:4067C000A1F901F0C5F80920FEF7FEFCA07800F0D9FD0121204600F019FB2E706E70AE703A4600212046FFF7CFFC0649887B401C8873A078FFF754FEF8BD284601F08CF9CB
:40680000F8BD00007018002010B5002801D0002000E0094800280DD0014640310A464978022901D100215170807DC107C90F002001F0E6F910BD00009018002070B50346AF
:406840000D460088FFF7F6FC04000BD000F093F8002807D01248F121807A0840C00603D4112070BD022070BD20464030418A008A491C41430804C10C5888884201D2122068
:4068800070BD20822079072802D12046FFF7C4F8022028702089002104F0C2FA002070BD28180020016A491C016204D1817E491C4906490E81767047C169491CC16104D12F
:4068C000C17E491C4906490EC1767047F0B5074687B003A8009005A800260D460190002F01D0002400E01B4C002C05D06846FCF759F8002803D00BE0022007B0F0BD6846CD
:406900000089C00704D1902200212046FBF7F2FF114829460068826820469047050016D1A77066762746267140373E70204600F019F8204601F07CFA084820820848BE770C
:40694000807AF121084000D001202075E682E8B2D3E70000901800202C100020B80B000028180020002101628176C161C17620300177417770470079002805D0012803D0BD
:40698000022801D001207047002070474030807F002800D00120704740300078002807D0012805D0052803D00E2801D0012070470020704710B5807801F0BAF9002800D0FA
:4069C000012010BD10B500F0F9FB03498989090B01D0FFF7D5FE10BDA0102E4070B5054604464035A87F002825D1FF206075A0789021154A484380186030417F9023491CEE
:406A0000C9B24177A0785843104B8018DB896030994201D300214177A0789021484380186030467F0677A1783046FEF7BBFA002802D00120A87770BD0220A877A0783146D3
:406A400000F05CFD70BD0000701800205C1900200020401C0006000EFBD0002070470000F0B515468207920F85B0000A02926A469080002D01D0002400E0564C002C28D0AC
:406A8000084600F06BFC07466846808800280BD00298012843D0022841D003280BD03D20005D012879D08FE04B48381801882046FFF717F888E00020029002A80DF074F875
:406AC000002807D03D20005D012802D12046FFF7E9FE7CE06846029E8388324600213846FCF78CFE3C48381801882046FEF7F9FF284600F0F3FA01AA21463046FEF7E6FDFA
:406B0000002806D030460DF0BFF83D204C21085531E0F5773146204601F0F2FA57E0002000902089039068460DF02EF8002802D0002005B0F0BD6846009E8388321D002198
:406B40003846FCF75BFE2448381801882046FEF7C8FF284600F0C2FA2046FFF70CFF002805D025464035287E002810D107E030460DF080F82BE02046FFF764FA27E001AA8E
:406B800021463046029BFEF7D9FD002806D030460DF070F83D202873EDE712E00298FEF7AFFF0399317003990001090A0143717068468088B070000AF0703046FFF7DAFC28
:406BC00005E02046FFF76EFE284600F087FA0120AFE700009018002000102E4010B5074A917B002901D0491E91730021FFF76EFE002801D0002010BD012010BD7018002086
:406C0000F8B5074606464037B87F00282DD0B078902100904843234945186035287F0099FEF7D5F901281ED0287F401CC4B21E48C089A04200D800240020B877FF276F776E
:406C40002F77A87702460146009800F0D3FD717DFF2903D0304601F0ACF8777501F022FC0025114F19E00320B877F8BD00200090224669463046FEF7F7FE0099002904D037
:406C8000FF231A463046FEF7BAF9641CF889E4B2A04200D800246D1CEDB2F889A842E5D8F8BD0000701800205C19002010B502460021084B03E0002901D0002000E01846C1
:406CC0000479944204D0491C0906090EF3D0002010BD00009018002000B50120FFF7E6FF00BD10B5044601F08BFF2189018080346168416061682831816003F0C7FF10BDA0
:406D0000F7B50646087982B00C46092807D0A078F0770846FFF73AFE012806D010E030460CF0C6FF022005B0F0BDA1789020294A484380186030007FFEF734F9012810D010
:406D4000A078FEF7D1FD01280BD037780121304601F054FB25462035062F38D00B2F0FD107E06846027C21463046FEF7ADFE0D20D9E72046FDF73EFF012801D100202877C8
:406D80002046FFF779FA054604AA21463046FEF70AFD01205F2108556946097C002001910090A07833463A46294600F051FB69460A7CA0780323294600F0F4FEA0782946B7
:406DC000FDF746FE30460CF073FF0020ABE70120D5E700007018002010B502464032937F0021002B03D1927E002A00D00121064A927A002A00D000210279092A00D101214B
:406E0000807800F01DFF10BD4019002070B50C460546FDF7EFFE00280BD1012C06D92879092806D02846FFF7C5FD0446002C02D004E0012402E0A87DC007FAD1A87DC107B0
:406E4000C90F204600F0DCFE70BD0000012807D0082804D104480282034808300180704701488038FAE70000A0102E40014908817047000000102E4010B50446FF20F130F6
:406E8000012C01D1FF20D530002200F01BFF044A108A044980B2A0430880108210BD000000102E40EE0F0020034B198A034A89B2814311801982704700102E40EE0F0020FC
:406EC00010B50446012802D0082C07D102E0FF20D53001E0FF20F13000F0ECFE0348018A034A89B221431180018210BD00102E40EE0F0020034B198A034A89B201431180EF
:406F00001982704700102E40EE0F002070B5054604462035A87FF122800012018018164A86183088400840003080002906D10121AB7FFF220903601D00F002FE892120460C
:406F4000AB7F80224901113000F0FAFD83212046AB7F202249010B3000F0F2FD43212046AB7F40228901173000F0EAFD208801210843308070BD000000102E40F8B5054693
:406F80000120A84086B214460F46012231467C2000F098FE3A463146782000F093FE6078267800020643E078A2780002024360792379000203430C2045430D20800105492E
:406FC000281844182680001D44182280001D40180380F8BD00102E40CB065B0E0343480901021943D00108430121C902084301490881704780142E4042780378120213435A
:40700000084A1382C37880781B021843908248780B78000203431383C8788978000201439183704700142E40024A1080000C90801181704700142E40044A00218018028863
:40704000491C89B21029FAD37047000000102E40024A10820148803081817047A0102E4010B5054A1082084600F050FE024A0021A03A8018018010BDA0102E4010B50B46F4
:40708000044600F017F819462046FFF7E1FF10BD002310B5F121064A090118468C182380091D401CC0B289B20828F7D310BD000000102E40024A10820148803001817047A2
:4070C000A0102E4010B504490882FF20002220211D3000F0F7FD10BDA0102E40000202494D3008807047000000102E400249888A0422904388827047C0112E4010B5084B43
:40710000074C0202A03B0029208202D075321A8010BD04490020088088807632F7E70000A0102E40201A2E40054B198807229202002801D0114300E091431980704700002A
:40714000001F2E4000B5034908884880FFF7ACFE00BD0000EE0F002000B502484088FFF7C9FE00BDEE0F002010B5FCF7FDFC10BD014952200880704700102E40034908887E
:407180000122D2031043088070470000001F2E4000210170704700000748808806492039098B884201D8081A03E00022D243101A401880B27047000020112E400148008A20
:4071C000C0B27047A0102E4070B5084C049D2082074804890548603006880E8001891180808818806007400F287070BDA0102E40E0112E400148008970470000C0102E403D
:4072000000280FD00D4A108B0870000A4870908B8870000AC8700948203000880871000A48717047064A10880870000A487090888870000AC8701089F0E7000040102E4008
